{
  "contractName": "StarNotary",
  "abi": [
    {
      "constant": true,
      "inputs": [
        {
          "name": "interfaceId",
          "type": "bytes4"
        }
      ],
      "name": "supportsInterface",
      "outputs": [
        {
          "name": "",
          "type": "bool"
        }
      ],
      "payable": false,
      "stateMutability": "view",
      "type": "function"
    },
    {
      "constant": true,
      "inputs": [
        {
          "name": "",
          "type": "uint256"
        }
      ],
      "name": "starsForSale",
      "outputs": [
        {
          "name": "",
          "type": "uint256"
        }
      ],
      "payable": false,
      "stateMutability": "view",
      "type": "function"
    },
    {
      "constant": true,
      "inputs": [
        {
          "name": "tokenId",
          "type": "uint256"
        }
      ],
      "name": "getApproved",
      "outputs": [
        {
          "name": "",
          "type": "address"
        }
      ],
      "payable": false,
      "stateMutability": "view",
      "type": "function"
    },
    {
      "constant": false,
      "inputs": [
        {
          "name": "to",
          "type": "address"
        },
        {
          "name": "tokenId",
          "type": "uint256"
        }
      ],
      "name": "approve",
      "outputs": [],
      "payable": false,
      "stateMutability": "nonpayable",
      "type": "function"
    },
    {
      "constant": true,
      "inputs": [
        {
          "name": "",
          "type": "uint256"
        }
      ],
      "name": "tokenIdToStarInfo",
      "outputs": [
        {
          "name": "name",
          "type": "string"
        },
        {
          "name": "story",
          "type": "string"
        },
        {
          "components": [
            {
              "name": "ra",
              "type": "string"
            },
            {
              "name": "dec",
              "type": "string"
            },
            {
              "name": "mag",
              "type": "string"
            },
            {
              "name": "cot",
              "type": "string"
            }
          ],
          "name": "coor",
          "type": "tuple"
        }
      ],
      "payable": false,
      "stateMutability": "view",
      "type": "function"
    },
    {
      "constant": false,
      "inputs": [
        {
          "name": "from",
          "type": "address"
        },
        {
          "name": "to",
          "type": "address"
        },
        {
          "name": "tokenId",
          "type": "uint256"
        }
      ],
      "name": "transferFrom",
      "outputs": [],
      "payable": false,
      "stateMutability": "nonpayable",
      "type": "function"
    },
    {
      "constant": false,
      "inputs": [
        {
          "name": "from",
          "type": "address"
        },
        {
          "name": "to",
          "type": "address"
        },
        {
          "name": "tokenId",
          "type": "uint256"
        }
      ],
      "name": "safeTransferFrom",
      "outputs": [],
      "payable": false,
      "stateMutability": "nonpayable",
      "type": "function"
    },
    {
      "constant": true,
      "inputs": [
        {
          "name": "tokenId",
          "type": "uint256"
        }
      ],
      "name": "ownerOf",
      "outputs": [
        {
          "name": "",
          "type": "address"
        }
      ],
      "payable": false,
      "stateMutability": "view",
      "type": "function"
    },
    {
      "constant": true,
      "inputs": [
        {
          "name": "owner",
          "type": "address"
        }
      ],
      "name": "balanceOf",
      "outputs": [
        {
          "name": "",
          "type": "uint256"
        }
      ],
      "payable": false,
      "stateMutability": "view",
      "type": "function"
    },
    {
      "constant": false,
      "inputs": [
        {
          "name": "to",
          "type": "address"
        },
        {
          "name": "approved",
          "type": "bool"
        }
      ],
      "name": "setApprovalForAll",
      "outputs": [],
      "payable": false,
      "stateMutability": "nonpayable",
      "type": "function"
    },
    {
      "constant": false,
      "inputs": [
        {
          "name": "from",
          "type": "address"
        },
        {
          "name": "to",
          "type": "address"
        },
        {
          "name": "tokenId",
          "type": "uint256"
        },
        {
          "name": "_data",
          "type": "bytes"
        }
      ],
      "name": "safeTransferFrom",
      "outputs": [],
      "payable": false,
      "stateMutability": "nonpayable",
      "type": "function"
    },
    {
      "constant": true,
      "inputs": [
        {
          "name": "owner",
          "type": "address"
        },
        {
          "name": "operator",
          "type": "address"
        }
      ],
      "name": "isApprovedForAll",
      "outputs": [
        {
          "name": "",
          "type": "bool"
        }
      ],
      "payable": false,
      "stateMutability": "view",
      "type": "function"
    },
    {
      "anonymous": false,
      "inputs": [
        {
          "indexed": true,
          "name": "from",
          "type": "address"
        },
        {
          "indexed": true,
          "name": "to",
          "type": "address"
        },
        {
          "indexed": true,
          "name": "tokenId",
          "type": "uint256"
        }
      ],
      "name": "Transfer",
      "type": "event"
    },
    {
      "anonymous": false,
      "inputs": [
        {
          "indexed": true,
          "name": "owner",
          "type": "address"
        },
        {
          "indexed": true,
          "name": "approved",
          "type": "address"
        },
        {
          "indexed": true,
          "name": "tokenId",
          "type": "uint256"
        }
      ],
      "name": "Approval",
      "type": "event"
    },
    {
      "anonymous": false,
      "inputs": [
        {
          "indexed": true,
          "name": "owner",
          "type": "address"
        },
        {
          "indexed": true,
          "name": "operator",
          "type": "address"
        },
        {
          "indexed": false,
          "name": "approved",
          "type": "bool"
        }
      ],
      "name": "ApprovalForAll",
      "type": "event"
    },
    {
      "constant": false,
      "inputs": [
        {
          "name": "_name",
          "type": "string"
        },
        {
          "name": "_story",
          "type": "string"
        },
        {
          "name": "_ra",
          "type": "string"
        },
        {
          "name": "_dec",
          "type": "string"
        },
        {
          "name": "_mag",
          "type": "string"
        },
        {
          "name": "_cot",
          "type": "string"
        },
        {
          "name": "_tokenId",
          "type": "uint256"
        }
      ],
      "name": "createStar",
      "outputs": [],
      "payable": false,
      "stateMutability": "nonpayable",
      "type": "function"
    },
    {
      "constant": false,
      "inputs": [
        {
          "name": "_tokenId",
          "type": "uint256"
        },
        {
          "name": "_price",
          "type": "uint256"
        }
      ],
      "name": "putStarUpForSale",
      "outputs": [],
      "payable": false,
      "stateMutability": "nonpayable",
      "type": "function"
    },
    {
      "constant": false,
      "inputs": [
        {
          "name": "_tokenId",
          "type": "uint256"
        }
      ],
      "name": "buyStar",
      "outputs": [],
      "payable": true,
      "stateMutability": "payable",
      "type": "function"
    }
  ],
  "bytecode": "0x608060405261003f6301ffc9a77c01000000000000000000000000000000000000000000000000000000000261007f640100000000026401000000009004565b61007a6380ac58cd7c01000000000000000000000000000000000000000000000000000000000261007f640100000000026401000000009004565b61013c565b63ffffffff7c010000000000000000000000000000000000000000000000000000000002817bffffffffffffffffffffffffffffffffffffffffffffffffffffffff1916141515156100d057600080fd5b6001600080837bffffffffffffffffffffffffffffffffffffffffffffffffffffffff19167bffffffffffffffffffffffffffffffffffffffffffffffffffffffff1916815260200190815260200160002060006101000a81548160ff02191690831515021790555050565b611f608061014b6000396000f3006080604052600436106100db576000357c0100000000000000000000000000000000000000000000000000000000900463ffffffff16806301ffc9a7146100e05780630564b13014610144578063081812fc14610185578063095ea7b3146101f25780631967fd981461023f57806323b872dd14610358578063244bbc5c146103c55780632f1c34ef14610596578063316a4361146105b657806342842e0e146105ed5780636352211e1461065a57806370a08231146106c7578063a22cb4651461071e578063b88d4fde1461076d578063e985e9c514610820575b600080fd5b3480156100ec57600080fd5b5061012a60048036038101908080357bffffffffffffffffffffffffffffffffffffffffffffffffffffffff1916906020019092919050505061089b565b604051808215151515815260200191505060405180910390f35b34801561015057600080fd5b5061016f60048036038101908080359060200190929190505050610902565b6040518082815260200191505060405180910390f35b34801561019157600080fd5b506101b06004803603810190808035906020019092919050505061091a565b604051808273ffffffffffffffffffffffffffffffffffffffff1673ffffffffffffffffffffffffffffffffffffffff16815260200191505060405180910390f35b3480156101fe57600080fd5b5061023d600480360381019080803573ffffffffffffffffffffffffffffffffffffffff1690602001909291908035906020019092919050505061096b565b005b34801561024b57600080fd5b5061026a60048036038101908080359060200190929190505050610ab0565b604051808060200180602001848152602001838103835286818151815260200191508051906020019080838360005b838110156102b4578082015181840152602081019050610299565b50505050905090810190601f1680156102e15780820380516001836020036101000a031916815260200191505b50838103825285818151815260200191508051906020019080838360005b8381101561031a5780820151818401526020810190506102ff565b50505050905090810190601f1680156103475780820380516001836020036101000a031916815260200191505b509550505050505060405180910390f35b34801561036457600080fd5b506103c3600480360381019080803573ffffffffffffffffffffffffffffffffffffffff169060200190929190803573ffffffffffffffffffffffffffffffffffffffff16906020019092919080359060200190929190505050610e9d565b005b3480156103d157600080fd5b50610594600480360381019080803590602001908201803590602001908080601f0160208091040260200160405190810160405280939291908181526020018383808284378201915050505050509192919290803590602001908201803590602001908080601f0160208091040260200160405190810160405280939291908181526020018383808284378201915050505050509192919290803590602001908201803590602001908080601f0160208091040260200160405190810160405280939291908181526020018383808284378201915050505050509192919290803590602001908201803590602001908080601f0160208091040260200160405190810160405280939291908181526020018383808284378201915050505050509192919290803590602001908201803590602001908080601f0160208091040260200160405190810160405280939291908181526020018383808284378201915050505050509192919290803590602001908201803590602001908080601f016020809104026020016040519081016040528093929190818152602001838380828437820191505050505050919291929080359060200190929190505050610f6c565b005b6105b4600480360381019080803590602001909291905050506110a3565b005b3480156105c257600080fd5b506105eb600480360381019080803590602001909291908035906020019092919050505061124b565b005b3480156105f957600080fd5b50610658600480360381019080803573ffffffffffffffffffffffffffffffffffffffff169060200190929190803573ffffffffffffffffffffffffffffffffffffffff1690602001909291908035906020019092919050505061134a565b005b34801561066657600080fd5b506106856004803603810190808035906020019092919050505061136b565b604051808273ffffffffffffffffffffffffffffffffffffffff1673ffffffffffffffffffffffffffffffffffffffff16815260200191505060405180910390f35b3480156106d357600080fd5b50610708600480360381019080803573ffffffffffffffffffffffffffffffffffffffff1690602001909291905050506113e9565b6040518082815260200191505060405180910390f35b34801561072a57600080fd5b5061076b600480360381019080803573ffffffffffffffffffffffffffffffffffffffff16906020019092919080351515906020019092919050505061146d565b005b34801561077957600080fd5b5061081e600480360381019080803573ffffffffffffffffffffffffffffffffffffffff169060200190929190803573ffffffffffffffffffffffffffffffffffffffff16906020019092919080359060200190929190803590602001908201803590602001908080601f01602080910402602001604051908101604052809392919081815260200183838082843782019150505050505091929192905050506115a9565b005b34801561082c57600080fd5b50610881600480360381019080803573ffffffffffffffffffffffffffffffffffffffff169060200190929190803573ffffffffffffffffffffffffffffffffffffffff1690602001909291905050506115d1565b604051808215151515815260200191505060405180910390f35b6000806000837bffffffffffffffffffffffffffffffffffffffffffffffffffffffff19167bffffffffffffffffffffffffffffffffffffffffffffffffffffffff1916815260200190815260200160002060009054906101000a900460ff169050919050565b60066020528060005260406000206000915090505481565b600061092582611665565b151561093057600080fd5b6002600083815260200190815260200160002060009054906101000a900473ffffffffffffffffffffffffffffffffffffffff169050919050565b60006109768261136b565b90508073ffffffffffffffffffffffffffffffffffffffff168373ffffffffffffffffffffffffffffffffffffffff16141515156109b357600080fd5b8073ffffffffffffffffffffffffffffffffffffffff163373ffffffffffffffffffffffffffffffffffffffff1614806109f357506109f281336115d1565b5b15156109fe57600080fd5b826002600084815260200190815260200160002060006101000a81548173ffffffffffffffffffffffffffffffffffffffff021916908373ffffffffffffffffffffffffffffffffffffffff160217905550818373ffffffffffffffffffffffffffffffffffffffff168273ffffffffffffffffffffffffffffffffffffffff167f8c5be1e5ebec7d5bd14f71427d1e84f3dd0314c0f7b2291e5b200ac8c7c3b92560405160405180910390a4505050565b6005602052806000526040600020600091509050806000018054600181600116156101000203166002900480601f016020809104026020016040519081016040528092919081815260200182805460018160011615610100020316600290048015610b5c5780601f10610b3157610100808354040283529160200191610b5c565b820191906000526020600020905b815481529060010190602001808311610b3f57829003601f168201915b505050505090806001018054600181600116156101000203166002900480601f016020809104026020016040519081016040528092919081815260200182805460018160011615610100020316600290048015610bfa5780601f10610bcf57610100808354040283529160200191610bfa565b820191906000526020600020905b815481529060010190602001808311610bdd57829003601f168201915b5050505050908060020160806040519081016040529081600082018054600181600116156101000203166002900480601f016020809104026020016040519081016040528092919081815260200182805460018160011615610100020316600290048015610ca95780601f10610c7e57610100808354040283529160200191610ca9565b820191906000526020600020905b815481529060010190602001808311610c8c57829003601f168201915b50505050508152602001600182018054600181600116156101000203166002900480601f016020809104026020016040519081016040528092919081815260200182805460018160011615610100020316600290048015610d4b5780601f10610d2057610100808354040283529160200191610d4b565b820191906000526020600020905b815481529060010190602001808311610d2e57829003601f168201915b50505050508152602001600282018054600181600116156101000203166002900480601f016020809104026020016040519081016040528092919081815260200182805460018160011615610100020316600290048015610ded5780601f10610dc257610100808354040283529160200191610ded565b820191906000526020600020905b815481529060010190602001808311610dd057829003601f168201915b50505050508152602001600382018054600181600116156101000203166002900480601f016020809104026020016040519081016040528092919081815260200182805460018160011615610100020316600290048015610e8f5780601f10610e6457610100808354040283529160200191610e8f565b820191906000526020600020905b815481529060010190602001808311610e7257829003601f168201915b505050505081525050905083565b610ea733826116d7565b1515610eb257600080fd5b600073ffffffffffffffffffffffffffffffffffffffff168273ffffffffffffffffffffffffffffffffffffffff1614151515610eee57600080fd5b610ef8838261176c565b610f02838261186f565b610f0c828261199e565b808273ffffffffffffffffffffffffffffffffffffffff168473ffffffffffffffffffffffffffffffffffffffff167fddf252ad1be2c89b69c2b068fc378daa952ba7f163c4a11628f55a4df523b3ef60405160405180910390a4505050565b610f74611e15565b610f7c611e3e565b6080604051908101604052808881526020018781526020018681526020018581525091506060604051908101604052808a815260200189815260200183815250905080600560008581526020019081526020016000206000820151816000019080519060200190610fee929190611e66565b50602082015181600101908051906020019061100b929190611e66565b506040820151816002016000820151816000019080519060200190611031929190611e66565b50602082015181600101908051906020019061104e929190611e66565b50604082015181600201908051906020019061106b929190611e66565b506060820151816003019080519060200190611088929190611e66565b5050509050506110983384611af8565b505050505050505050565b600080600060066000858152602001908152602001600020541115156110c857600080fd5b600660008481526020019081526020016000205491503073ffffffffffffffffffffffffffffffffffffffff16636352211e846040518263ffffffff167c010000000000000000000000000000000000000000000000000000000002815260040180828152602001915050602060405180830381600087803b15801561114d57600080fd5b505af1158015611161573d6000803e3d6000fd5b505050506040513d602081101561117757600080fd5b8101908080519060200190929190505050905081341015151561119957600080fd5b6111a3818461186f565b6111ad338461199e565b8073ffffffffffffffffffffffffffffffffffffffff166108fc839081150290604051600060405180830381858888f193505050501580156111f3573d6000803e3d6000fd5b5081341115611246573373ffffffffffffffffffffffffffffffffffffffff166108fc8334039081150290604051600060405180830381858888f19350505050158015611244573d6000803e3d6000fd5b505b505050565b3373ffffffffffffffffffffffffffffffffffffffff163073ffffffffffffffffffffffffffffffffffffffff16636352211e846040518263ffffffff167c010000000000000000000000000000000000000000000000000000000002815260040180828152602001915050602060405180830381600087803b1580156112d157600080fd5b505af11580156112e5573d6000803e3d6000fd5b505050506040513d60208110156112fb57600080fd5b810190808051906020019092919050505073ffffffffffffffffffffffffffffffffffffffff1614151561132e57600080fd5b8060066000848152602001908152602001600020819055505050565b61136683838360206040519081016040528060008152506115a9565b505050565b6000806001600084815260200190815260200160002060009054906101000a900473ffffffffffffffffffffffffffffffffffffffff169050600073ffffffffffffffffffffffffffffffffffffffff168173ffffffffffffffffffffffffffffffffffffffff16141515156113e057600080fd5b80915050919050565b60008073ffffffffffffffffffffffffffffffffffffffff168273ffffffffffffffffffffffffffffffffffffffff161415151561142657600080fd5b600360008373ffffffffffffffffffffffffffffffffffffffff1673ffffffffffffffffffffffffffffffffffffffff168152602001908152602001600020549050919050565b3373ffffffffffffffffffffffffffffffffffffffff168273ffffffffffffffffffffffffffffffffffffffff16141515156114a857600080fd5b80600460003373ffffffffffffffffffffffffffffffffffffffff1673ffffffffffffffffffffffffffffffffffffffff16815260200190815260200160002060008473ffffffffffffffffffffffffffffffffffffffff1673ffffffffffffffffffffffffffffffffffffffff16815260200190815260200160002060006101000a81548160ff0219169083151502179055508173ffffffffffffffffffffffffffffffffffffffff163373ffffffffffffffffffffffffffffffffffffffff167f17307eab39ab6107e8899845ad3d59bd9653f200f220920489ca2b5937696c3183604051808215151515815260200191505060405180910390a35050565b6115b4848484610e9d565b6115c084848484611b9e565b15156115cb57600080fd5b50505050565b6000600460008473ffffffffffffffffffffffffffffffffffffffff1673ffffffffffffffffffffffffffffffffffffffff16815260200190815260200160002060008373ffffffffffffffffffffffffffffffffffffffff1673ffffffffffffffffffffffffffffffffffffffff16815260200190815260200160002060009054906101000a900460ff16905092915050565b6000806001600084815260200190815260200160002060009054906101000a900473ffffffffffffffffffffffffffffffffffffffff169050600073ffffffffffffffffffffffffffffffffffffffff168173ffffffffffffffffffffffffffffffffffffffff161415915050919050565b6000806116e38361136b565b90508073ffffffffffffffffffffffffffffffffffffffff168473ffffffffffffffffffffffffffffffffffffffff16148061175257508373ffffffffffffffffffffffffffffffffffffffff1661173a8461091a565b73ffffffffffffffffffffffffffffffffffffffff16145b80611763575061176281856115d1565b5b91505092915050565b8173ffffffffffffffffffffffffffffffffffffffff1661178c8261136b565b73ffffffffffffffffffffffffffffffffffffffff161415156117ae57600080fd5b600073ffffffffffffffffffffffffffffffffffffffff166002600083815260200190815260200160002060009054906101000a900473ffffffffffffffffffffffffffffffffffffffff1673ffffffffffffffffffffffffffffffffffffffff1614151561186b5760006002600083815260200190815260200160002060006101000a81548173ffffffffffffffffffffffffffffffffffffffff021916908373ffffffffffffffffffffffffffffffffffffffff1602179055505b5050565b8173ffffffffffffffffffffffffffffffffffffffff1661188f8261136b565b73ffffffffffffffffffffffffffffffffffffffff161415156118b157600080fd5b6119046001600360008573ffffffffffffffffffffffffffffffffffffffff1673ffffffffffffffffffffffffffffffffffffffff16815260200190815260200160002054611dc090919063ffffffff16565b600360008473ffffffffffffffffffffffffffffffffffffffff1673ffffffffffffffffffffffffffffffffffffffff1681526020019081526020016000208190555060006001600083815260200190815260200160002060006101000a81548173ffffffffffffffffffffffffffffffffffffffff021916908373ffffffffffffffffffffffffffffffffffffffff1602179055505050565b600073ffffffffffffffffffffffffffffffffffffffff166001600083815260200190815260200160002060009054906101000a900473ffffffffffffffffffffffffffffffffffffffff1673ffffffffffffffffffffffffffffffffffffffff16141515611a0c57600080fd5b816001600083815260200190815260200160002060006101000a81548173ffffffffffffffffffffffffffffffffffffffff021916908373ffffffffffffffffffffffffffffffffffffffff160217905550611ab16001600360008573ffffffffffffffffffffffffffffffffffffffff1673ffffffffffffffffffffffffffffffffffffffff16815260200190815260200160002054611de190919063ffffffff16565b600360008473ffffffffffffffffffffffffffffffffffffffff1673ffffffffffffffffffffffffffffffffffffffff168152602001908152602001600020819055505050565b600073ffffffffffffffffffffffffffffffffffffffff168273ffffffffffffffffffffffffffffffffffffffff1614151515611b3457600080fd5b611b3e828261199e565b808273ffffffffffffffffffffffffffffffffffffffff16600073ffffffffffffffffffffffffffffffffffffffff167fddf252ad1be2c89b69c2b068fc378daa952ba7f163c4a11628f55a4df523b3ef60405160405180910390a45050565b600080611bc08573ffffffffffffffffffffffffffffffffffffffff16611e02565b1515611bcf5760019150611db7565b8473ffffffffffffffffffffffffffffffffffffffff1663150b7a02338887876040518563ffffffff167c0100000000000000000000000000000000000000000000000000000000028152600401808573ffffffffffffffffffffffffffffffffffffffff1673ffffffffffffffffffffffffffffffffffffffff1681526020018473ffffffffffffffffffffffffffffffffffffffff1673ffffffffffffffffffffffffffffffffffffffff16815260200183815260200180602001828103825283818151815260200191508051906020019080838360005b83811015611cc4578082015181840152602081019050611ca9565b50505050905090810190601f168015611cf15780820380516001836020036101000a031916815260200191505b5095505050505050602060405180830381600087803b158015611d1357600080fd5b505af1158015611d27573d6000803e3d6000fd5b505050506040513d6020811015611d3d57600080fd5b8101908080519060200190929190505050905063150b7a027c0100000000000000000000000000000000000000000000000000000000027bffffffffffffffffffffffffffffffffffffffffffffffffffffffff1916817bffffffffffffffffffffffffffffffffffffffffffffffffffffffff19161491505b50949350505050565b600080838311151515611dd257600080fd5b82840390508091505092915050565b6000808284019050838110151515611df857600080fd5b8091505092915050565b600080823b905060008111915050919050565b608060405190810160405280606081526020016060815260200160608152602001606081525090565b60c0604051908101604052806060815260200160608152602001611e60611ee6565b81525090565b828054600181600116156101000203166002900490600052602060002090601f016020900481019282601f10611ea757805160ff1916838001178555611ed5565b82800160010185558215611ed5579182015b82811115611ed4578251825591602001919060010190611eb9565b5b509050611ee29190611f0f565b5090565b608060405190810160405280606081526020016060815260200160608152602001606081525090565b611f3191905b80821115611f2d576000816000905550600101611f15565b5090565b905600a165627a7a72305820ed59bbf402cb55299f099cf25890f73eba327d3dc70563af489ca48366c84c450029",
  "source": "pragma solidity ^0.4.23;\n\nimport 'openzeppelin-solidity/contracts/token/ERC721/ERC721.sol';\n\ncontract StarNotary is ERC721 {\n\n     struct Coordinator {\n        string ra;\n        string dec;\n        string mag;\n        string cot;\n    }\n\n    struct Star {\n        string name;\n        string story;\n        Coordinator coor;\n\n    }\n\n\n    mapping(uint256 => Star) public tokenIdToStarInfo;\n    mapping(uint256 => uint256) public starsForSale;\n\n    function createStar(string _name, string _story, string _ra, string _dec, string _mag, string _cot, uint256 _tokenId) public {\n        Coordinator memory newCoor = Coordinator(_ra, _dec, _mag, _cot);\n\n        Star memory newStar = Star(_name, _story, newCoor);\n\n        tokenIdToStarInfo[_tokenId] = newStar;\n\n        _mint(msg.sender, _tokenId);\n    }\n\n    function putStarUpForSale(uint256 _tokenId, uint256 _price) public {\n        require(this.ownerOf(_tokenId) == msg.sender);\n\n        starsForSale[_tokenId] = _price;\n    }\n\n    function buyStar(uint256 _tokenId) public payable {\n        require(starsForSale[_tokenId] > 0);\n\n        uint256 starCost = starsForSale[_tokenId];\n        address starOwner = this.ownerOf(_tokenId);\n        require(msg.value >= starCost);\n\n        _removeTokenFrom(starOwner, _tokenId);\n        _addTokenTo(msg.sender, _tokenId);\n\n        starOwner.transfer(starCost);\n\n        if(msg.value > starCost) {\n            msg.sender.transfer(msg.value - starCost);\n        }\n    }\n}",
  "sourcePath": "/home/adriana/dev/ud-blockchain/Project_5/smart_contracts/contracts/StarNotary.sol",
  "compiler": {
    "name": "solc",
    "version": "0.4.24+commit.e67f0147.Emscripten.clang"
  },
  "schemaVersion": "2.0.1",
  "updatedAt": "2018-10-15T00:32:16.098Z"
}